:020000040800F2
:10000000100E002069200008FD200008FF200008D5
:1000100003210008072100080B2100080000000050
:100020000000000000000000000000001121000896
:100030000F2100080000000013210008152100080E
:1000400017210008192100081B2100081D210008A4
:100050001F2100082121000823210008DB210008BE
:10006000FD2100081F220008412200084322000849
:100070004522000847220008492200084B220008B8
:100080004D2200084F220008512200088B22000850
:100090008D2200088F220008912200089322000878
:1000A0009522000897220008992200089B22000848
:1000B0009D220008FD230008FF23000801240008FA
:1000C0000324000805240008072400080924000868
:1000D0000B2400080D2400080F2400081124000838
:1000E00013240008492400086924000800F002F8DD
:1000F00000F05CF80AA090E8000C82448344AAF166
:100100000107DA4501D100F051F8AFF2090EBAE863
:100110000F0013F0010F18BFFB1A43F0010318473B
:100120009CD10000BCD100000A444FF0000C10F834
:10013000013B13F0070408BF10F8014B1D1108BF65
:1001400010F8015B641E05D010F8016B641E01F805
:10015000016BF9D113F0080F1EBF10F8014BAD1C55
:100160000C1B09D16D1E58BF01F801CBFAD505E073
:1001700014F8016B01F8016B6D1EF9D59142D6D3CD
:10018000704700000023002400250026103A28BFF5
:1001900078C1FBD8520728BF30C148BF0B607047F9
:1001A0001FB50CF0EEFF1FBD10B510BD0CF0AFFF7A
:1001B0001146FFF7F5FF02F077FF0CF0CDFF03B417
:1001C000FFF7F2FF03BC0CF0D5FF000010B5F049BB
:1001D00041180DD04FF48064A14214D10121204672
:1001E00001F001FA2046BDE81040002101F0FBB902
:1001F00001214C02204601F0F6F92046BDE81040EE
:10020000002101F0F0B910BD10B54268E14B02EADF
:1002100003020C790B6842EA042243EA02034360BA
:100220008268DD4B02EA0302D1E9024343EA040398
:100230004C7942EA440243EA02038360C26A22F430
:100240007002097CA1F10101C9B242EA0151C16207
:1002500010BD4FF000010160017141718160C1600A
:100260004FF001010174704721B1816841F0010133
:1002700081607047816821F001018160704721B180
:10028000816841F480718160704781684FF6FF6238
:1002900001EA020181607047C9B222B1426842EAB4
:1002A000010242607047426822EA010242607047E0
:1002B000816841F008018160704701464FF00000FD
:1002C0008968090701D54FF001007047816841F046
:1002D00004018160704701464FF0000089684907BA
:1002E00001D54FF00100704721B1816841F4A001B0
:1002F00081607047816821F4A001816070470146E8
:100300004FF000008968490201D54FF001007047A5
:10031000426822F46042A1F10101C9B242EA4131CE
:100320004160704721B1416841F40061416070470C
:10033000416821F400614160704770B507260929C2
:100340000ED9C568A1F10A0404EB440406FA04F6C8
:1003500025EA060503FA04F345EA0305C5600BE048
:10036000056901EB410406FA04F625EA060503FADD
:1003700004F345EA030505611F23072A0ED2446BE7
:10038000A2F1010202EB820203FA02F324EA03045F
:1003900001FA02F144EA0104446370BD0D2A0ED251
:1003A000046BA2F1070202EB820203FA02F324EAD1
:1003B000030401FA02F144EA0104046370BDC46A53
:1003C000A2F10D0202EB820203FA02F324EA030413
:1003D00001FA02F144EA0104C46270BD21B18168EE
:1003E00041F4801181607047816821F4801181603F
:1003F0007047C06C80B2704768480068704721B190
:10040000416841F4806141607047416821F4806136
:100410004160704721B1416841F4805141607047AB
:10042000416821F4805141607047826822F4E042C3
:1004300042EA01028260704721B1816841F40041C3
:1004400081607047816821F400418160704721B16B
:10045000816841F4021181607047816821F40211C2
:100460008160704701464FF000008968890201D51C
:100470004FF00100704770B5072609290ED9C568ED
:10048000A1F10A0404EB440406FA04F625EA060581
:1004900003FA04F345EA0305C5600BE0056901EBC7
:1004A000410406FA04F625EA060503FA04F345EAD0
:1004B00003050561836BC3F30154A2EB040202F14F
:1004C000020202EB82024FF01F0404FA02F423EA54
:1004D000040301FA02F143EA0103836370BD826BF6
:1004E00022F44012A1F10101C9B242EA0151816333
:1004F0007047425070470844806A80B27047426833
:10050000274B02EA030242EA01024260704741625D
:1005100082627047426822F01F0242EA0102426092
:100520007047204930B1D1F8080440F40000C1F808
:1005300008047047D1F8080420F40000C1F808044A
:10054000704702464FF0000012680A4201D04FF097
:1005500001007047026822EA01020260704710B58C
:1005600002464FF000004FEA11235468C9B204EA72
:1005700001041168194203D0002C01D04FF0010092
:1005800010BD4FEA1121026822EA010202607047A1
:1005900000DCFEBFFFFEF0FFFDF7F1FF4C24014041
:1005A000FFFD3FFF0020014010B5012001F033F8AE
:1005B000BDE81040002001F02EB81B4908607047CC
:1005C0001A49086070471A4908607047194A11882B
:1005D00021F4607141EA000111807047154A1188C9
:1005E00021F07F0141EA000111807047124A104456
:1005F000A0F8001C704710490844B0F8000C704780
:100600000E480068C0B270470D48018841F00101F2
:10061000018070470B480068C0B2704708480188E5
:1006200041F002010180704704860D4200860D42B0
:1006300088860D422C6C004000600040A0860D4270
:10064000346C0040A4860D4221B1016841F00101E3
:1006500001607047016821F001010160704700B539
:1006600002464FF000011046FFF7EEFF4FF000008A
:10067000106050609060D060494B4A48A2EB030183
:100680009A4221D00BDC4849511813D0142916D0B6
:10069000282903D1416841F47061416000BD1429EB
:1006A00017D028291AD03C29F8D1416841F070614F
:1006B000416000BD416841F00F01416000BD4168EB
:1006C00041F0F001416000BD416841F4704141607A
:1006D00000BD416841F47021416000BD416841F4B2
:1006E0007001416000BD30B5026847F6F07322EA40
:1006F00003020C6A8B6843EA0403D1E9044544EA27
:10070000050443EA04038C6943EA0403CC6943EA21
:1007100004034C6A43EA04038C6A43EA040343EA91
:1007200002030360CA6842600A6882604968C16067
:1007300030BD4FF00001016041608160C160016126
:1007400041618161C161016241628162704722B190
:10075000026842EA010202607047026822EA01026E
:1007600002607047406880B2704701464FF0000059
:100770000C4A12680A4201D04FF001007047094943
:100780004860704701464FF00000064A12680A426E
:1007900001D04FF0010070470249486070470000E7
:1007A0004400024000000240F8FFFDBF38484FF00F
:1007B0000001016041608160C1603649416170475C
:1007C00030B5354C017985790B190268D3F80014DE
:1007D00055B341EA0201C3F80014D4F808140268C2
:1007E00021EA0201C4F80814D4F80C14026821EAC2
:1007F0000201C4F80C144179102908D02144006882
:10080000D1F8002442EA0002C1F8002430BD04F50A
:1008100081642168026841EA020121606168006820
:1008200041EA0001616030BD21EA0201C3F8001411
:1008300030BD4FF00001016001714FF00C024271B8
:100840008171704715490A6842EA00020A607047E0
:1008500001464FF00000124A12680A4201D04FF0E0
:10086000010070470E490860704701464FF00000D4
:10087000074B1A6802EA01025B690B4203D0002AA7
:1008800001D04FF001007047054908607047000033
:1008900000040140FFFF0700000001401004014078
:1008A00014040140FB490A6802F038020A600A6831
:1008B00042EA00020A607047F6490A6822F008021C
:1008C0000A600A6842EA00020A607047F1490A6851
:1008D00022F010020A600A6842EA00020A607047C9
:1008E000EC48ED494160ED4941607047E9480169D4
:1008F00041F08001016170474FF00400E549CA688A
:10090000D20702D04FF001007047CA68520702D5E3
:100910004FF002007047C968C906FBD54FF00300CD
:1009200070474FF0FF0001E0A0F101000028FBD16B
:10093000704710B50446FFF7DFFF05E0FFF7F1FF52
:10094000FFF7DAFFA4F10104012801D1002CF5D151
:10095000002C01D14FF0050010BD70B5054640F6E2
:10096000FF763046FFF7E5FF042814D1C94C206913
:1009700040F0020020616561206940F04000206184
:100980003046FFF7D6FF012805D0216941F6FD72F8
:1009900001EA0201216170BD70B540F6FF7528467D
:1009A000FFF7C7FF042813D1BA4C206940F00400B8
:1009B0002061206940F0400020612846FFF7B9FF20
:1009C000012805D0216941F6FB7201EA020121618B
:1009D00070BD70B540F6FF752846FFF7AAFF0428E2
:1009E00019D1AC4CAC48A060AC48A060206940F084
:1009F00020002061206940F0400020612846FFF778
:100A000098FF41F6EF75042806D0012803D021692C
:100A100001EA0501216170BD206941F6DF7100EA3C
:100A200001002061206940F0100020619C494FF0D6
:100A3000A50008804FF00F00FFF77BFF0128EAD0E8
:100A4000216901EA0501216170BD2DE9F0410646E9
:100A50000D464FF00F00FFF76CFF042813D18D4CAB
:100A6000206940F00100206135804FF00F00FFF752
:100A700060FF41F6FE77042807D0012803D02169E2
:100A800001EA07012161BDE8F0814FEA154070805D
:100A90004FF00F00FFF74DFF0128F4D0216901EA64
:100AA00007012161EFE770B506460D464FF00F00D4
:100AB000FFF73FFF042811D1764C206940F0010078
:100AC000206135804FF00F00FFF733FF012805D07C
:100AD000216941F6FE7201EA0201216170BD70B523
:100AE00006460D464FF00F00FFF723FF042815D1EF
:100AF000684C6948A0606948A060206940F0100017
:100B0000206135804FF00F00FFF713FF012805D05B
:100B1000216941F6EF7201EA0201216170BD2DE900
:100B2000F0476FEA0000C4B2C0F30725C0F30746E0
:100B30004FEA10674FF00F00FFF7FBFE04283BD190
:100B4000DFF850815449C8F808105449C8F8081013
:100B5000D8F8101041F01001C8F81010DFF84491D7
:100B6000FF2C04D0A9F808480F20FFF7E2FE042864
:100B700006D1FF2D04D0A9F80A580F20FFF7D9FE9F
:100B8000042806D1FF2E04D0A9F80C680F20FFF727
:100B9000D0FE042806D1FF2F04D0A9F80E780F202C
:100BA000FFF7C7FE012807D0D8F8101041F6EF7202
:100BB00001EA0201C8F81010BDE8F08770B50546DB
:100BC00040F6FF763046FFF7B4FE042819D1314CC9
:100BD0003148A0603148A060206940F020002061C9
:100BE000206940F0400020613046FFF7A2FE41F648
:100BF000DF71042806D0012803D0226902EA01022D
:100C0000226170BD206900EA01002061206940F086
:100C100010002061234825B14FF00001A0F8001812
:100C200003E04FF0A501A0F800183046FFF781FE61
:100C30000128E6D0216941F6EF7201EA0201216143
:100C400070BD2DE9F04105460E461746114C12487D
:100C5000A0601248A0604FF00F00FFF76AFE042862
:100C600017D1206940F01000206145EA06050E49C1
:100C700045EA070545F0F80008804FF00F00FFF740
:100C800058FE012805D0216941F6EF7201EA020100
:100C90002161F8E60020024023016745AB89EFCDD2
:100CA00000F8FF1F00F0FF1F02F8FF1F1C48C0697B
:100CB000800870471A48006A70474FF000001849D2
:100CC000C969890701D54FF0010070474FF0000056
:100CD00013490968890601D54FF001007047104A91
:100CE00021B1116941EA000111617047116921EADE
:100CF00000011161704701464FF00000084A0129C8
:100D000005D0D2680A4201D04FF001007047D16986
:100D1000C907FBD04FF0010070470149C860704718
:100D20000020024010B5934A811A1315904228D032
:100D30000EDC914940181AD0984236D10121082082
:100D400000F051FC0021BDE81040082000F04BBC31
:100D5000994220D0B1F5006F27D10121402000F049
:100D600042FC0021BDE81040402000F03CBC0121C5
:100D7000042000F038FC0021BDE81040042000F001
:100D800032BC0121102000F02EFC0021BDE81040F3
:100D9000102000F028BC0121202000F024FC0021BC
:100DA000BDE81040202000F01EBC10BD10B5012190
:100DB000084600F018FC0021BDE81040012000F0BA
:100DC00012BC2DE9F0434FF00002CC7804F00F0381
:100DD000E40602D58C7844EA03030C884FF00F0731
:100DE00014F0FF0F4FF0010C1ED005680CFA02F44E
:100DF0000E8806EA0406A64211D14FEA820607FAD7
:100E000006F825EA080503FA06F848EA0505CE784B
:100E1000282E00D14461CE78482E00D1046102F121
:100E20000102082AE2D305600A88FF2A22D9456810
:100E30004FF0000202F108060CFA06F40E8806EAEA
:100E40000406A64211D14FEA820607FA06F825EAFF
:100E5000080903FA06F545EA0905CE78282E00D1DF
:100E60004461CE78482E00D1046102F10102082AC3
:100E7000E0D34560BDE8F0834FF6FF7101804FF08D
:100E8000020181704FF00401C170704702464FF0BB
:100E9000000092680A4201D04FF00100704780685C
:100EA00080B2704702464FF00000D2680A4201D07B
:100EB0004FF001007047C06880B270470161704711
:100EC000416170470AB10161704741617047C1607B
:100ED000704741F4803282618161826181698069F9
:100EE000704710B5254B1A684FF6807402EA040269
:100EF00042EA001040EA0100186010BD2049C861B4
:100F0000704770B51D4E7268C0F3034583B284020A
:100F100002D522F0E0620AE0C40206D54FF00304D5
:100F200004FA05F422EA040201E022EA030231B1E4
:100F3000800202D542EA034201E042EA0302726003
:100F400070BD10B54FEA81724FEA12724FF00F0375
:100F500003FA02F321F00304084921448C6824EACF
:100F600003048C608B6800FA02F043EA00038B6094
:100F700010BD00000010014000F8FEBF000001405D
:100F8000000020424FF000004FF0E0214FF0FF330F
:100F9000C1F8803140F2FF72C1F88421C1F880327B
:100FA000C1F88422024601EB8003C3F8002400F15B
:100FB00001000B28F7D370474FF00000D2494FF0E3
:100FC00020620A6002464A60D04B8B60CA600A61A8
:100FD000A1F6045101EB8003C3F8182D00F10100C4
:100FE0000328F7D301F624510A604FF0FF30486020
:100FF0008860C8607047C54940EA0100C44908607C
:101000007047F0B54FF00F05C27801784FF0E0243B
:101010004FF00107CAB3D4F80C2D02F4E062C2F518
:10102000E0624FEA1222C2F1040325FA02F5467883
:1010300006FA03F6827802EA050242EA06024FEA5D
:1010400002154FEA81724FEAD26205FA02F521F0E9
:10105000030101EB0403D3F800644FF0FF0101FA30
:1010600002F126EA010605EA010546EA0506C3F88B
:101070000064007800F01F014FEA501004EB80007C
:1010800007FA01F7C0F80071F0BDFFE701F01F009B
:1010900007FA00F74FEA511004EB8000C0F88071A6
:1010A000F2E74FF00001017041708170C17070472C
:1010B00001F011B801F011B801F011B801F011B848
:1010C000000101F010B801F011B88F480068C0F3BA
:1010D0000930704701464FF0000001F01F034FF048
:1010E000010202FA03F24FEA51114FF0E02303EB41
:1010F0008101D1F800128A4301D14FF001007047FD
:1011000084490860704700F01F024FF0010101FAA6
:1011100002F14FEA50104FF0E02202EB8000C0F8DD
:101120008012704778480068C0F309007047014694
:101130004FF0000001F01F034FF0010202FA03F22A
:101140004FEA51114FF0E02303EB8101D1F8001376
:101150008A4301D14FF0010070476F480068704723
:101160006E4A01EA020141EA00016D4801607047E0
:1011700067496C480860704765496B48086070476C
:101180004FF0E02231B1D2F8101D41EA0001C2F85F
:10119000101D7047D2F8101D21EA0001C2F8101D81
:1011A000704700F01F024FF0010000FA02F04FF00C
:1011B000E02231B1D2F8241D41EA0001C2F8241D19
:1011C0007047D2F8241D21EA0001C2F8241D70479F
:1011D00070B54FF0FF044FF0E026D6F80C3D03F455
:1011E000E063C3F5E0634FEA1323C3F1040524FA77
:1011F00003F401FA05F102EA040242EA01024FEAAD
:10120000021100F0C0024FEA9213C0F301204FEA2E
:10121000C00001FA00F14FF0FF0202FA00F206EB03
:10122000830000F61850036823EA02030360026893
:1012300042EA0102026070BD01464FF000004FEA31
:10124000912101F00F024FF0010101FA02F1374A3A
:10125000126802EA01028A4201D14FF00100704790
:1012600000F01F0028490B684FF0010202FA00F25B
:1012700043EA02030B60704700F01F0022490A682E
:10128000A0F101004FF0010303FA00F342EA030268
:101290000A60704701464FF00000C1F383324FF0FF
:1012A000010101FA02F1214A126802EA01028A42AE
:1012B00001D14FF001007047C0F38142C0F30151EA
:1012C0004FF0E02022B1012A05D0D0F8300D704750
:1012D000D0F82C0D7047D0F8280D4FEAC10220FA43
:1012E00002F0022902D000F00F007047C0B2704730
:1012F000C0F380504FF0E02110B1D1F8380D7047A5
:10130000D1F8340D7047000004ED00E00000FA054C
:101310000CED00E000EF00E000ED00E080FFFF1FBB
:1013200008ED00E00400FA050100FA0524ED00E0F4
:10133000C7484FF00001C16001614FF014024261E3
:101340008161C161026842F0010202604268C14BE2
:1013500002EA030242600268BF4B02EA0302026033
:10136000026822F480220260426822F4FE02426097
:1013700081607047B6490A6822F480320A600A68C0
:1013800022F480220A60B0F5803F07D0B0F5802FAC
:1013900003D1086840F4A02008607047086840F452
:1013A00080300860704703464FF000004FEA531149
:1013B000A74A01290DD002290DD0516A03F01F025E
:1013C0004FF0010303FA02F30B4201D04FF001008A
:1013D00070471168F2E7116AF0E710B59F4C3120B1
:1013E000FFF7E1FF2070606800F101006060207885
:1013F00010B96068FF28F2D13120FFF7D4FF08B19F
:10140000012010BD002010BD914A116821F0F801A3
:1014100041EAC000106070479149086070478C4BEA
:101420005A6822F47C1240EA010040EA0200586047
:1014300070478B4908667047854A516821F003015F
:1014400041EA0001516070478148406800F00C009B
:1014500070477F4A516821F0F00141EA0001516074
:1014600070477B4A516821F4E06141EA0001516014
:101470007047774A516821F4605141EAC0005060DA
:101480007047734A21B1517A41EA000151727047A5
:10149000517A21EA00015172704772490860704721
:1014A0006B4A516821F4404141EA000151607047A4
:1014B0006D494FF000020A7001F82029012806D07A
:1014C000042803D14FF0050081F8200070474FF049
:1014D000010081F8200070476449086070475C494A
:1014E0000A6A42EA00020A6270476149086070476E
:1014F00010B5574A516801F00C015E4B71B30429D5
:101500002ED008292ED00360516801F0F0014FEA77
:101510001111594B5C5C016821FA04F14160546877
:1015200004F4E0644FEA14241C5D21FA04F484609E
:10153000546804F460544FEAD4241B5D21FA03F18B
:10154000C160526802F440424FEA92324A4BA3F122
:1015500004039A5CB1FBF2F1016110BD0360D3E7B3
:101560000360D1E7516801F470114FF0020303EBFF
:101570009141536803F480333BB153689B0309D511
:101580003E4B01FB03F10160BEE73C4B01FB03F165
:101590000160B9E7374B01FB03F10160B4E72C4A66
:1015A00021B1516941EA000151617047516921EA55
:1015B000000151617047264A21B1916941EA000159
:1015C00091617047916921EA000191617047204A59
:1015D00021B1D16941EA0001D1617047D16921EAA5
:1015E0000001D16170471A4A21B1D16841EA000176
:1015F000D1607047D16821EA0001D1607047144A78
:1016000021B1116941EA000111617047116921EAB4
:101610000001116170471A49086070471049C86499
:1016200070470B49C87170470948416A41F08071A1
:101630004162704701464FF00000054A92680A4235
:1016400001D04FF0010070470149887270470000D7
:10165000001002400000FFF8FFFFF6FE000000202F
:1016600000004242D8004242201002408004424220
:101670003C04424200127A0094D1000800093D0067
:1016800040044242444A31B1B2F8001841EA000134
:10169000A2F800187047B2F8001821EA0001A2F879
:1016A000001870473D48018841F0100101807047E3
:1016B0003A48018821F01001018070473849888834
:1016C000098840EA0140704700B50246FFF7EAFF8B
:1016D00033484FEA1241018082805DF804EBE7E76E
:1016E00000B50246FFF7DEFF2E48C2F3034101803A
:1016F00082805DF804EBDBE700B50246FFF7D2FF1E
:1017000029484FEA1241018082805DF804EBCFE75F
:10171000264801884FEA01714FEA1131808840EA7A
:10172000010070471C48B0F804188906FBD57047C3
:101730001948B0F8041821F00801A0F80418B0F80E
:1017400004180907FBD5704701464FF00000134A03
:1017500012880A4201D04FF0010070470F490A88F1
:1017600022EA00020A8070470B4AB2F804180140CE
:1017700001D04FF00101B2F80028024203D011B1AC
:101780004FF0010070474FF00000704703490A888E
:1017900022EA00020A80704700200040042800402E
:1017A0001828004008280040202800401028004049
:1017B00010B5B0F1804F0FD0F949401816D0B0F5F0
:1017C000806F1DD101210420FFF719FF0021BDE822
:1017D00010400420FFF713BF01210846FFF70FFF59
:1017E0000021BDE810400120FFF709BF01210220C0
:1017F000FFF705FF0021BDE810400220FFF7FFBE04
:1018000010BD0A8882854A880285028802F08F020C
:1018100002808A88C98842EA0102018842EA0102FC
:101820000280704770B5038CDE4C4A8804F10806CC
:1018300032B1012A04D0022A2FD0032A2DD049E048
:10184000058B34F8124004EA050436F8125005EA14
:1018500003058AB1028C43F2233302EA03020284B5
:101860000A8844EA02228B88038745F01003C9885E
:1018700043EA011302832DE0028C43F2323302EA81
:10188000030202840A8842EA04028B88838645F0B8
:101890000104CB8843EA0403ECE7858B34F812405B
:1018A00004EA050436F8125005EA0305022A13D0AB
:1018B000028C42F2333302EA030202840A8844EAC9
:1018C00002228B88A0F8403045F48053C98843EA4F
:1018D00001338283038470BD028C43F2332302EA16
:1018E000030202840A8842EA04028B88838745F453
:1018F0008073C98843EA0123EBE7028B4FF6F37349
:1019000002EA030242EA010202837047F0B5058B46
:10191000048C068C43F2323706EA070606844FF63B
:101920000C7605EA060542EA031242EA050243F292
:10193000303304EA030444EA010444F001014FF0A7
:101940000003038302830184F0BD028B4FF2FF3357
:1019500002EA030242EA012101837047F0B5058BD8
:10196000048C4FEA0116018C43F2233701EA070188
:10197000018440F6FF4105EA010545EA033343EAE5
:10198000022143F2033204EA020444EA060444F06A
:10199000100201830284F0BD2DE9F04107460C4698
:1019A0004FF000054FF00106A18809B94FF002057C
:1019B000E288012A01D14FF002066088A37A88B13B
:1019C0003846FFF7CBFF21893846FFF7BEFFA37AE1
:1019D000324629463846FFF799FF21893846BDE847
:1019E000F0418AE73846FFF791FF21893846FFF733
:1019F00084FFA37A324629463846FFF7AFFF218994
:101A00003846BDE8F041A0E7828B4FF2FF3302EA8F
:101A1000030242EA012181837047F0B5868B048C72
:101A20004FEA0135018C42F2333701EA07010184A4
:101A300040F6FF4106EA01064FEA022141EA03317E
:101A400041EA060140F2333204EA020444EA0504A2
:101A500044F4805281830284F0BD828B4FF6F3738D
:101A600002EA030242EA010282837047F0B5858BE5
:101A7000048C4FEA0126018C43F2332701EA070167
:101A800001844FF60C7105EA010542EA031141EAAF
:101A9000050143F2330204EA020444EA060444F472
:101AA000807281830284F0BD70B505460C462088A3
:101AB000072804D021462846BDE870406CE76188BD
:101AC00071B1012917D0022920D0A37AE288A18818
:101AD0002846FFF7A2FF21892846BDE8704093E71A
:101AE000A37AE288A1882846FFF710FF21892846BB
:101AF000BDE8704001E7A37AE288A1882846FFF795
:101B00002DFF21892846BDE870401EE7A37AE288B0
:101B1000A1882846FFF7AAFF21892846BDE8704022
:101B20009BE74FF00001018041808180C1807047B8
:101B30004FF00001018041808180C18070474FF0EB
:101B4000070101804FF00001418081804FF00102C8
:101B5000C28001818172704721B1018841F0010189
:101B600001807047018840F2FE3201EA02010180E3
:101B7000704722B1828942EA0102828170478289DC
:101B800022EA01028281704730F8483F41EA0201AF
:101B90000180704783893AB143EA010309E00000FC
:101BA00000FCFFBFA4D100086FEA010189B203EA7B
:101BB000010383817047018921F00F010181704782
:101BC00002894FF6877302EA030242EA01020281A8
:101BD000704710B504462046FFF7F2FF208940F019
:101BE0000700208110BD70B50D4604461146602DDA
:101BF0000CD001222046FFF789FE29462046FFF738
:101C0000DFFF208940F00700208170BD01222046BF
:101C1000FFF7A4FEF1E710B5048904F0F70441EAE8
:101C2000020141EA032141EA0401018110BD10B51E
:101C300004462046FFF7EFFF208920F00F002081A7
:101C4000208940F007002081208920F07800208141
:101C5000208940F07000208110BD10B50446204658
:101C6000FFF7D9FF208940F48040208110BD018515
:101C7000012A04D0818A01F0010181827047818AA2
:101C800041F0010181827047028840F28F3302EAFD
:101C9000030242EA010202807047028B4FF68F7303
:101CA00002EA030242EA010202837047028B48F60D
:101CB000FF7302EA030242EA012101837047828B2B
:101CC0004FF68F7302EA030242EA010282837047F1
:101CD000828B48F6FF7302EA030242EA0121818304
:101CE0007047028811B142F0800203E040F27F3178
:101CF00002EA010202807047828811B142F00801B5
:101D000001E002F0F00181807047028B4FF6F7731B
:101D100002EA030242EA010202837047028B4FF299
:101D2000FF7302EA030242EA012101837047828BBA
:101D30004FF6F77302EA030242EA01028283704718
:101D4000828B4FF2FF7302EA030242EA0121818390
:101D50007047028B4FF6FB7302EA030242EA01026C
:101D600002837047028B4FF6FF3302EA030242EA16
:101D7000012101837047828B4FF6FB7302EA030255
:101D800042EA010282837047828B4FF6FF3302EAF8
:101D9000030242EA012181837047028B4FF67F7371
:101DA00002EA030242EA010202837047028BC2F395
:101DB0000E0242EA012101837047828B4FF67F7346
:101DC00002EA030242EA010282837047828BC2F375
:101DD0000E0242EA012181837047028811B142F06C
:101DE000020203E040F2FD3102EA01020280704784
:101DF000F0B50589048B068C4FF6F07705EA0705E8
:101E000045EA01054FF6FC4104EA010440F20111E4
:101E100044EA010443F2113106EA010642EA0311E1
:101E200041EA0601058104830184F0BD828A42EA09
:101E3000010282827047028C43F2313302EA0302CC
:101E400042EA010202847047028C43F2133302EA31
:101E5000030242EA011101847047028C43F23313FA
:101E600002EA030242EA012101847047028C41F236
:101E7000333302EA030242EA0131018470470288E7
:101E8000012905D040F2FB3102EA010202807047CD
:101E900042F00402FAE721B1818841F0800181809B
:101EA0007047818821F08F0181807047028840F25D
:101EB000F73302EA030242EA010202807047828895
:101EC00002F0800242EA01028280704702894FF6E6
:101ED000F07302EA030242EA0102028170470289BA
:101EE0004FF6777302EA030242EA01020281704769
:101EF000818470478185704781867047018770476C
:101F000081877047A0F8401070470288D2B242EA39
:101F1000010202807047808E7047008F7047808F6B
:101F20007047B0F840007047808C7047008D704754
:101F300002464FF00000128A0A4201D04FF0010021
:101F40007047028A22EA01020282704702464FF07D
:101F50000000138A03EA0103928902EA0102002BBE
:101F600003D0002A01D04FF001007047028A22EA14
:101F700001020282704700000E49086070470D4957
:101F8000486070470B49886070470A494AF6AA20A2
:101F90000860704707494CF6CC400860704701461E
:101FA0004FF00000034AD2680A4201D04FF001000E
:101FB000704700000030004010B501210C0720469A
:101FC000FFF71DFB2046BDE810400021FFF717BBBF
:101FD0002149086270472049086170471F4A11680B
:101FE00021F0E00141EA0001116070471C490860DE
:101FF00070471A4B1A6822F0030242EA00021A6084
:102000001848026842F004020260012901D000F081
:102010003FB800F03BB81148016841F0040101608D
:10202000016841F0020101600E48016841F00401BD
:10203000016000F02BB801464FF00000074A5268DB
:102040000A4201D04FF00100704704490A6842EA91
:10205000800008607047000000000E4200700040E1
:10206000A0000E4210ED00E0034800470348044979
:10207000044A054B70470000ED00000810080020DE
:10208000100E0020100A0020100A002030BF7047F8
:1020900020BF704740BF7047BFF36F8F7047BFF3DB
:1020A0004F8F7047BFF35F8F704701DF7047EFF3CB
:1020B0001480704780F31488BFF36F8F7047EFF37D
:1020C0000980704780F309887047EFF308807047F4
:1020D00080F30888704772B6704762B6704771B671
:1020E000704761B6704780F311887047EFF3128034
:1020F000704740BA704700BA704700007047FFF75A
:1021000037B8FFF735B8FFF733B8FFF731B8704786
:102110007047704770477047704770477047704707
:1021200070477CB50120FEF7A0FB002852D00120AB
:10213000FEF7AAFBCD48007878BB684603F009FC9F
:102140009DF802309DF804209DF801009DF80340A1
:102150004FEA034502EB006105EB04252944C44D19
:102160002D688D422BD19DF80050552D27D100F1BF
:1021700055002344184410449DF8052002449DF85E
:1021800006000244D2B29DF80730934217D1B94AF3
:10219000C3064FF0000401D5547110E0537913B118
:1021A0001379834208D04FF001035371D3719071BA
:1021B0001071491C0FD01472AF480068106003F012
:1021C00094FBF02003F0B2F9C02003F0AFF9012036
:1021D000FEF75AFB7CBD1372EEE710B50220FEF746
:1021E00044FB002809D0A5494FF001000870BDE864
:1021F00010404FF00200FEF747BB10BD10B50420A1
:10220000FEF733FB002809D09C494FF0010008700D
:10221000BDE810404FF00400FEF736BB10BD10B50E
:102220000820FEF722FB002809D094494FF0010056
:102230000870BDE810404FF00800FEF725BB10BD48
:1022400070477047704770477047704770477047D6
:1022500070B58B4D4FF4A07421462846FEF791F9D6
:10226000884B4FF001021A70874AD268120702D0D9
:1022700003F0EEFF03E001212846FEF735F8214682
:102280002846BDE87040FEF77CB97047704770473C
:102290007047704770477047704770472DE9F041AD
:1022A00001218807FFF762FE734F386800F10100D3
:1022B000386076484FF0010404703868C00701D1D7
:1022C0007348047038684FF4FA71B0FBF1F201FB07
:1022D000120008B96F48047039686420B1FBF0F24D
:1022E00000FB121018B96C4804706C480470386810
:1022F0000A21B0FBF1F201FB1200002648B9684840
:102300000470684804705F4D287808B903F0A0FF96
:102310002E7038686449B0FBF1F201FB120008B975
:1023200062480470396842F21070B1FBF0F200FBB1
:10233000121008B95E480470386844F62061B0FB9A
:10234000F1F201FB120018B95A4804705A4804709F
:102350005A48007801280ED1594803F0C3FE594865
:1023600003F0C0FE584803F0BDFE584803F0BAFE23
:10237000574803F01FFF574D5748297851B101299D
:102380001BD02E7069785548F1B101292FD06E709D
:10239000BDE8F0811021FEF779FD0028F2D1504808
:1023A00001693A68511A032905D9C16801F101018F
:1023B000C160396801612C70E4E71021FEF766FD09
:1023C0000028DFD02E70DDE74021FEF75FFD0028FA
:1023D000DED1444801693A68511A032905D9C16818
:1023E00001F10101C160396801616C70D0E74021E1
:1023F000FEF74CFD0028CBD06E70C9E770477047E0
:102400007047704770477047704770477047704714
:10241000704770B54FF400663046FEF726FA174C49
:10242000012518B125703046FEF72EFA4FF480567C
:102430003046FEF71AFA002805D025703046BDE870
:102440007040FEF721BA70BD10B50220FFF78CF97D
:10245000002808D00220FFF799F9BDE810404FF49A
:102460000030FEF711BA10BD70470000F9000020DF
:10247000FC0000200404002040010020D8020020BD
:1024800000240140390100200000024070000020BB
:102490007100002069000020D4000020F800002016
:1024A0001C00002034010020C02709004601002044
:1024B00044010020450100204A010020380100208D
:1024C000E804002020050020040500203C05002031
:1024D00058050020080000200018014000140140A9
:1024E0009C0300207803002070B55D4C4FF0000580
:1024F00025706570A570E57004F0A7FC257104F0E7
:102500009FFCA57104F0B0FCE57104F0A3FC04F09D
:1025100035FC04F04DFC04F036FC6571BDE87040FC
:1025200004F0A6BC70B54E4C0125204621780079F8
:102530000026012900D108B121B108E004F02EFCE9
:10254000257104E0012802D104F07FFC2671607837
:10255000012801D1A17909B138B10CE004F0F9FBEF
:10256000A571022004F044F905E0A079012802D108
:1025700004F066FCA671A078012801D1617909B147
:1025800020B109E004F0F4FB657105E060790128F1
:1025900002D104F0FDFB6671E078012801D1E179F8
:1025A00041B1002805D1E079012802D104F05CFC9A
:1025B000E67170BD04F001FCE57170BD10B504F06A
:1025C00000FC284801682648C1604FF001010172F3
:1025D0004FF00A01417210BD10B504F0F2FB214822
:1025E00001681F48C1604FF001010172417210BDC6
:1025F00010B5044604F0E5FB1A490A681849CA6098
:102600004FF001020A724C7210BD70B5144C207A62
:1026100000281CD0607A002819D0124D2868E16883
:10262000401AB0F5FA6F13D904F022FC2868E1686B
:10263000401A41F28831884205D92868E060607A02
:10264000A0F101006072607A002800D1207270BD94
:10265000BDE8704004F0B5BB04F02DBC04F0D4BB61
:102660000C00002040010020F8B5894987484860E7
:102670000C31884848600C31874848600C318748E5
:1026800048600C31864848602431864848600C31E7
:10269000854848600C318548486030398448486036
:1026A0000C31844848604FF000008349044651F8DB
:1026B0002020147251F82020547051F820201470FA
:1026C00000F10100C0B20428F1D34FF000007A49B4
:1026D0004FF0010501F1100151F82020157251F859
:1026E0002020547051F82020157000F10100C0B274
:1026F0000628F1D37048001F047001210320FEF763
:1027000020FC02210320FEF71CFC03210846FEF7F3
:1027100018FC0B210320FEF714FC0C210320FEF70C
:1027200010FC6648416841F00E014160016841F4C7
:10273000C05101604FF007068DF800604FF00D00AA
:102740008DF801008DF802408DF803506846FEF7C1
:1027500058FC8DF800606846FEF753FC4FF0080007
:102760008DF800006846FEF74CFC4FF009008DF82C
:1027700000006846FEF745FC4FF028008DF8000089
:102780006846FEF73EFCF8BD70B504464FF0000504
:102790002178606801290ED08047D8B1607800F1B7
:1027A0000100C0B26070142804D94FF001002070FD
:1027B0002072657070BD804708B1657070BD60782B
:1027C00000F10100C0B260701428F7D9257225709D
:1027D000657070BD657070BD70B504464FF0000542
:1027E0002178606801290ED08047D8B1607800F167
:1027F0000100C0B26070142804D94FF001002070AD
:102800002072657070BD804708B1657070BD6078DA
:1028100000F10100C0B260701428F7D9257225704C
:10282000657070BD657070BD10B52348001F0178DC
:1028300000292AD04FF0000101701548FFF7CCFFA6
:1028400013480C30FFF7C8FF11481830FFF7C4FFDA
:102850000F482430FFF7C0FF0D483030FFF7BCFFB2
:102860000B483C30FFF7B8FF09484830FFF7B4FF8A
:1028700007485430FFF7B0FF05486030FFF7ACFF62
:102880000348BDE810406C307EE710BD016F0008C2
:10289000DC020020116F0008216F0008396F00086A
:1028A0005D6F0008416F00084B6F0008F76E00086D
:1028B0008D6F0008976F0008200000200804014079
:1028C0004FF0000101E001F101018142FBD37047AB
:1028D00070B5054604F0D6FA0A20FFF7F1FF04F0C0
:1028E000DBFA04F087FA0A20FFF7EAFF04F07DFA2A
:1028F0000A20FFF7E5FF04F0CFFA04F0D2FA0A202D
:10290000FFF7DEFF04F071FA0A20FFF7D9FF04F0A9
:10291000C3FA04F0C6FA0A20FFF7D2FF04F065FA02
:102920000A20FFF7CDFF4FF0000404F0B5FAE805E8
:1029300002D504F05FFA01E004F0B3FA4FEA454033
:102940004FEA10454FF00A00FFF7BAFF04F04DFAC6
:102950000A20FFF7B5FF04F10104E4B2092CE4D327
:1029600004F048FABDE8704004F035BA0420AFE73F
:1029700004F045BA2DE9F04105460F46904604F0B3
:1029800081FA0120FFF79CFF04F086FA04F032FA86
:102990000120FFF795FF04F028FA0120FFF790FFD0
:1029A00004F07AFA04F07DFA0120FFF789FF04F0C1
:1029B0001CFA0120FFF784FF04F06EFA04F01AFA03
:1029C0000120FFF77DFF04F010FA0120FFF778FFE8
:1029D0004FF0000404F060FAA80602D504F00AFAE9
:1029E00001E004F05EFA4FEA45604FEA10654FF0EF
:1029F0000100FFF765FF04F0F8F90120FFF760FF21
:102A000004F10104E4B2062CE4D34FF000061EE00A
:102A1000BD5D4FF0000404F03FFAE80702D004F077
:102A2000E9F901E004F03DFA4FEA55054FF00100E5
:102A3000FFF746FF04F0D9F90120FFF741FF04F149
:102A40000104E4B2082CE6D306F10106F6B24645CD
:102A5000DED304F0CFF9BDE8F04104F0BCB9F7488B
:102A6000817801F0F80181707047F4484FF000015F
:102A70000171C170817801F09F0181707047EF484A
:102A8000417901F0100141717047EC48C17901F0C2
:102A90001001C171817901F0100181717047E7481F
:102AA000417A01F010014172017A01F010010172C6
:102AB0007047E248817801F07F0181704FF000019A
:102AC000417001707047DE4890F82010032903D947
:102AD0004FF0000180F82010D84A917801F0F801F9
:102AE000D84B90F82000185C41EA000191707047C3
:102AF00030B5D24A107900F0EE001071D17801F0B3
:102B0000EE01D170937803F09F039370CC4DEC7F6E
:102B1000032C00D814B94FF00104EC77EC7F012CA2
:102B20000BD0022C10D040F01100107141F01100B8
:102B3000D07043F02000907030BD40F01000107154
:102B400041F01000D07030BD40F00100107141F034
:102B50001100D07043F06000907030BDB848817FA4
:102B6000062902D94FF000018177B44A517901F06A
:102B70001001B44B807F03F104031844407841EA0C
:102B800000015171704730B5AD48417F632902D9CA
:102B90004FF000014177417F4FF00A02B1FBF2F0A4
:102BA00002FB1014A549CA7902F010028B7903F0D8
:102BB0001003A44D05F10405285C42EA0002CA7125
:102BC000285D43EA00038B7130BD30B59C484FF05F
:102BD0000A02017FB1FBF2F002FB101497494A7A16
:102BE00002F010030A7A02F01002964D05F1040576
:102BF000285C43EA00034B72285D42EA00020A7235
:102C000030BD8E494FF0000008704870887840F061
:102C1000800088708A48C07E00282DD0C20702D06C
:102C20004FF044024A70820703D54A7842F02202EC
:102C30004A70420703D54A7842F090024A70020770
:102C400003D54A7842F009024A70C20602D54FF015
:102C500011020A70820603D50A7842F088020A70CF
:102C6000420603D50A7842F022020A70000603D514
:102C7000087840F0440008707047062028E604F009
:102C800015B92DE9F0416E4D00272846697890F876
:102C90002200012908D000287ED085F82270FFF795
:102CA00067FEBDE8F04161E695F82110012973D176
:102CB00085F82170012628B985F82260FFF7DFFF2B
:102CC000FFF7DBFF287800F10100C0B228705B4CF1
:102CD000A17841F01001A170142800D12F70E87A7A
:102CE00078B3287E68BB207900F011002071E1786C
:102CF00001F01101E170EA7F0AB1032A00D9EE77F1
:102D0000EA7F02EB4203C3EBC2134FF47A7202EB89
:102D100083024D4B1B68B3FBF2F202F00302AB7B64
:102D20000BB94FF0000232B1012A0BD0022A10D0A9
:102D3000032A1BD114E041F02001E17040F084002F
:102D4000207113E041F04801E17040F00200207171
:102D50000CE041F08401E17040F02000207105E0BA
:102D600041F00201E17040F04800207128780A2803
:102D70006ED2A878F0B3207A40F010002072E87884
:102D8000C8B3607A40F0100060722879A0B3FFF7F2
:102D900038FF687988B300E0BCE0A07940F010000B
:102DA000A071A87950B3607940F010006071E879A3
:102DB00028B3FFF70AFF287A80B3FFF7E4FE687AAA
:102DC00068B3E07940F01000E071A87A40B3FFF7F3
:102DD000C5FEE87AD0B3287E38B1207940F0EE0005
:102DE0002071E07840F0EE00E070FFF781FE287B74
:102DF00068B305E00DE014E018E01AE029E02DE0EA
:102E0000FFF761FE687B78B3A07840F00800A070FF
:102E10007AE0207A00F0EF002072B0E721E024E0B1
:102E200028E0607A00F0EF006072AEE7FFF741FE45
:102E3000AFE7A07900F0EF00A071B2E754030020E3
:102E400048000020B4D100084001002015E017E040
:102E50001EE0607900F0EF006071A8E7FFF71FFE49
:102E6000A9E7FFF712FEAAE70DE0E07900F0EF0016
:102E7000E071AAE7FFF703FEABE7FFF7F6FDB6E761
:102E8000FFF7EDFDBEE7A07800F0F700A0703BE093
:102E9000E87B18B1207A00F0EF002072287C18B18E
:102EA000607A00F0EF006072687C08B1FFF701FE05
:102EB000A87C18B1A07900F0EF00A071E87C18B1EF
:102EC000607900F0EF006071287D08B1FFF7E7FD41
:102ED000687D08B1FFF7D9FDA87D18B1E07900F051
:102EE000EF00E071E87D08B1FFF7C9FD287E08B169
:102EF000FFF7BBFD687E08B1FFF7B1FDA87E18B1F2
:102F0000A07800F0F700A070BDE8F0410A222C493B
:102F10000C202FE5BDE8F0812A484FF000014170F8
:102F20008170C170017141718171C1710172417211
:102F30008172C172017341738173C17301744174F1
:102F40008174C174017541758175C17501764176D1
:102F50008176704710B503F043FF03F03CFF03F0A8
:102F60004EFF03F047FF03F040FF6420FFF7A8FC8B
:102F700003F08DFF6420FFF7A3FC4FF4E370FFF72D
:102F8000A7FC4020FFF7A4FC0220FFF7A1FC502083
:102F9000FFF79EFC3020FFF79BFCFFF7BDFF0949C0
:102FA0004FF0000081F8220010BD4FF00000044AED
:102FB0000146115400F10100C0B20A28F9D370474C
:102FC000540300204800002010B500214FF000609D
:102FD000FEF7C6F8BDE810404FF44070FEF70BB89E
:102FE00010B5FEF7A5F90020FEF7C4F91020FDF793
:102FF0006DFC0220FDF756FC0020FEF72AFA0020A7
:10300000FEF737FA0020FEF72CFA4FF4E01100200B
:10301000FEF705FA0120FEF70CFA3920FEF7C3F996
:103020000028FAD00220FEF707FAFEF70DFA08286A
:10303000FBD110BD10B5FFF7D3FF04F013F8FFF775
:10304000C3FF03F0E9FD02F0B2FF03F021FA03F041
:10305000D0F9FFF749FAFFF77DFFFFF705FB00F016
:10306000DFFB00F055F802F0A5FD03F013FC03F0C0
:103070008DFB02F0CCFC4FF6FF7421461D48FDF796
:1030800028FF21461C48FDF724FF4EF6FF711B4820
:10309000FDF71FFF21461A48FDF71BFF2146BDE83B
:1030A00010401848FDF715BF174915480860FFF78D
:1030B000C1FF03F0E9FFFEF701FB1449086005F0CA
:1030C000AAF903F040FD04F038F8FFF79EFAFFF785
:1030D000ABFBFFF7D6FD00F071FA00F0C1FA02F089
:1030E0002EFD02F00CFEEAE701E0A0F1010000284D
:1030F000FBD1704700080140000C01400010014066
:1031000000140140001801406C0000205001002014
:1031100070B5012003F096F9FF4CA081002003F068
:1031200091F9FE4D68606081022003F08BF9E08028
:1031300020814FF00001A960A089F94AB0F5B17F64
:1031400002D84FF01903137040F63E73984202D92B
:103150004FF01A00107029736973E98170BD2DE971
:10316000F05F022003F06EF9EC4CDFF8B893EE4903
:1031700094F811E00427DFF8B4B3DFF8B4C30122F8
:10318000E54E00254CF2503A4FF47A7340F28558E0
:10319000BEF10E0F7ED2DFE80EF007105C8CF5F367
:1031A000F2F1F2F3F2F1F2F0E24800686061627469
:1031B000BDE8F05F052003F0ACBADFF87883606902
:1031C000D8F80030181A504541D9B089D44BB0F521
:1031D000B17F06D84FF019001870BDE8F05F09F014
:1031E00051BD40F63E79484506D94FF01A00187097
:1031F000BDE8F05F09F046BD91F80090CE48CF4B96
:10320000B9F1000F08D1DFF838A3D0F80090D1440D
:10321000D3F800A0D14504D20A704FF005016174C3
:1032200008E04FF0020161749CF8001011B167745E
:10323000C4490D701968016003F0CAFC03F0B1FCC9
:103240003089F080B0892060D8F800006061BDE866
:10325000F09FF188884208D9421ABE2A05DDE0892C
:1032600070B1A0F10100E0810AE0884202D3401A67
:10327000AA2805DAE089984202D200F10100E08133
:10328000AC4861690268521A0321524507D9B289D4
:10329000424500E06EE102D96174026862616269D0
:1032A00003689A1AA84B9A4202D961740068606157
:1032B00061E1F18888420BD9A0EB010A40F2C27E9D
:1032C000F24505DDE08980B1A0F10100E0810CE06C
:1032D000884204D3401A40F2B27A504505DAE089B8
:1032E000984202D200F10100E081B08940F23743F8
:1032F000984203D267748F4B1B68636133898B429A
:1033000004D3591A40F27E3399420BDA8949636932
:10331000D1F800A0AAEB030A8C4B9A4502D9677436
:1033200009686161834B6169D3F800A0AAEB0101D0
:10333000DFF81CA2514504D8718940F64116B1420C
:1033400008D9677419686161C9F800507D490D702A
:103350008CF800209BF8001000290DD08BF800504D
:10336000404508D22168814205D9091A322902D97B
:103370006774196861612060FDE0ACE083E06DE096
:1033800046E0FFE7F188884208D9471ABE2F05DDDD
:10339000E08970B1A0F10100E0810AE0884202D327
:1033A000401AAA2805DAE089984202D200F1010009
:1033B000E0819BF80000002829D09CF8000000283C
:1033C00025D18BF80050B08940450DD933898B4207
:1033D0000AD9591A822907DD4FF005016174554950
:1033E0000968616157490A70524B61691B68591A33
:1033F000584B99420AD953490B78012B06D14045C5
:1034000004D2C9F800500D708CF800202060B2E0A2
:10341000F188884208D9421ABE2A05DDE08970B1D8
:10342000A0F10100E0810AE0884202D3401AAA28F4
:1034300005DAE089984202D200F10100E0813D48BE
:1034400061690268521A44498A4206D90EF1010E96
:1034500084F811E000686061E5818CE0354A6069BC
:1034600013681B1A3C4883420BD90EF1010E0EF073
:10347000FF006074126862610D2802D10D7003F0C4
:1034800090FBE58177E0F188884209D9421AB2F5CC
:10349000BA7F05DDE08978B1A0F10100E0810BE0A1
:1034A000884203D3401AB0F5B47F05DAE089984228
:1034B00002D200F10100E0811E4861690268521ADF
:1034C00022498A4257D90EF1010E84F811E00068B2
:1034D0006061E5814FE0F188884209D9461AB6F566
:1034E000BA7F05DDE08978B1A0F10100E0810BE051
:1034F000884203D3401AB0F5B47F05DAE0899842D8
:1035000002D200F10100E0810A4960690968081AE5
:10351000124988422FD923E0700000206003002068
:10352000DC01002058010020490100204601002054
:1035300048010020400100206001002050010020CF
:1035400000A776006100002000A24A04808D5B0085
:103550000095BA0A001BB700C0C62D00007B9A1761
:10356000A8480178012906D1C9F8005005708CF8E7
:10357000002000E06574A448007810B9A3480078E2
:1035800028B1E189BDE8F05F052003F041B80520CE
:1035900003F0BFF8E5815AE69D480021027B0AB995
:1035A000427B2AB19B480278012A06D10170D6E5F8
:1035B000C1814174052003F0ACB870472DE9F0419A
:1035C000934E00259448747B92494FF4FA6C01277E
:1035D0000CBB8D4A0B4696F80C8012785B6AB8F1EA
:1035E000010F0AD0AAB10268D21AB2F57A7F12D9B5
:1035F00002684A62377375740DE012B102684A625C
:1036000009E00268D21A624505D902684A62357338
:1036100001E002684A62327B002A0ED17B4A7D4B70
:10362000012C12789B6A0AD0BAB10268D21A62459C
:1036300003D90068886277737574BDE8F08112B1B0
:1036400000688862F9E70268D21A42F210739A425F
:10365000F3D9006888627573EFE700688862ECE769
:1036600070B56C4C607801287ED14FF00005657014
:10367000608800F1010060804FF00C0002F0E2FE73
:10368000E16A0144E162A16C0844A0644FF00D00BE
:1036900002F0D8FE216B01442163E16C0844E06430
:1036A0004FF00A0002F0CEFE616B01446163216DB0
:1036B000084420654FF00B0002F0C4FEA16B0144EA
:1036C000A163616D08446065284602F0BBFEE16BB2
:1036D0000144E163A16D0844A0654FF0010002F0D0
:1036E000B1FE216C01442164E16D0844E0654FF0B6
:1036F000020002F0A7FE616C01446164226E024484
:103700002266638846F2A810834222D1E36BB3FBA2
:10371000F0F36381236CB3FBF0F3A381E36AB3FBA3
:10372000F0F3E381236BB3FBF0F32382A36BB3FBD2
:10373000F0F36382636BB3FBF0F3A382B1FBF0F0B1
:1037400020816580E5632564E5622563A563656383
:103750006564A08800F1010081B2A18041F2883047
:10376000814224D1A16D00E021E0B1FBF0F1218381
:10377000E16DB1FBF0F16183A16CB1FBF0F1A183CC
:10378000E16CB1FBF0F1E183616DB1FBF0F12184FB
:10379000216DB1FBF0F16184B2FBF0F0E082A58015
:1037A000A565E565A564E56465652565256670BD67
:1037B00010B51848194B818940F6E600814210D9AE
:1037C0004FF03200421C33F812208A4203D233F801
:1037D00010208A4214D8A0F10100C0B20028F1D113
:1037E0000DE04FF03200421C33F812408C4203D2FD
:1037F00033F810408C4203D8D0B27628F3D300209F
:1038000010BD000061000020300300203C030020B8
:10381000600300207000002040010020C8D1000893
:1038200010B54FF00000FF49C860FF4A13680B61F4
:1038300013688B610877086201F148010876A1F1ED
:103840002401C86013680B6112688A6108770862F6
:1038500001F140010876F548FFF732F80D2002F03B
:10386000F1FDF34CA0800C2002F0ECFD60804FF4E1
:103870009660A060EF494FF00100087010BD10B5D0
:10388000E8494FF0000001F14801087601F11C0100
:1038900008764FF0010002F03CFF022002F039FFF1
:1038A000042002F036FF032002F033FFE24C022135
:1038B0002046FDF703FB08212046FDF7FFFA012112
:1038C0002046FDF7FBFA2046BDE810400421FDF735
:1038D000F5BA081A70472DE9F05FDFF8549399F8AC
:1038E0000000002876D04FF0000589F80050CD4F39
:1038F000DFF8308307F1480707F11C06387E317E78
:10390000A6F1400B60B359B3384632463B78806825
:103910009268012B11D0D8F80C305343B3FBF0F070
:10392000DBF80C20A0EB02023846002A80881DDD5F
:10393000B0B1A0F10100B8801CE0DBF80C304343CB
:10394000B3FBF2F0D8F80C20A0EB0202B548002A35
:1039500000F16400808804DD10B1A0F10100B080A6
:1039600008E007DA00F10100B08003E002DA00F1BC
:103970000100B8804FF47A7A00297ED0DBF810007D
:10398000DBF81810A0EB0102DBF81000CBF81800F0
:10399000DBF80C107069FFF79CFFDBF80C1071610D
:1039A000C8B1CBF820508BF81C50DBF80430CBF8B2
:1039B0000830DBF80010CBF80410CAB142F21074E2
:1039C00000FB04F0B0FBF2F0B268A2EB0000CBF811
:1039D000000010E0ECE0DBF8201001F10101CBF871
:1039E0002010C829E1D94FF001018BF81C10DCE749
:1039F000B068CBF80000DBF800004FF00A0290FB43
:103A0000F2F4A0EB01021844C1F1000100EB410106
:103A10004FF0500091FBF0F04FEAE27C02EB9C7219
:103A200004EBA202104404B2642C01DD4FF06404E4
:103A30000D2002F007FDB9F8041001F5E971884284
:103A400005D9002C01DD4FF00004A4F10A04B08870
:103A50002044002801DAB58003E0504500DD5046DF
:103A6000B080B07801281AD0B188042002F0D0FDCF
:103A7000F068DBF80C10643100E017E0884215D8DC
:103A8000DBF80C100A31884210D9307870B1307EE2
:103A9000A0F1010010F0FF00307605D006E0B188FB
:103AA000032002F0B5FDE3E7FFF7E9FE387E0028CA
:103AB0007ED0D8F81010D8F81800A1EB0002D8F882
:103AC0001000C8F81800D8F80C107869FFF701FF4B
:103AD000D8F80C107961C0B1C8F8205088F81C5093
:103AE000D8F80430C8F80830D8F80010C8F8041026
:103AF000C2B142F2107400FB04F0B0FBF2F0BA68FD
:103B0000A2EB0000C8F800000FE0D8F8201001F187
:103B10000101C8F82010C829E2D94FF0010188F846
:103B20001C10DDE7B868C8F80000D8F800004FF0B6
:103B30000A0290FBF2F4A0EB01021844C1F100016B
:103B400000EB41014FF0500091FBF0F04FEAE276BC
:103B500002EB967204EBA20202EB0004642C01DD7E
:103B60004FF064040C2002F06DFCB9F8021001F56E
:103B7000E971884205D9002C01DD4FF00004A4F161
:103B80000A04B8882044002801DABD8003E05045CB
:103B900000DD5046B880B87801281DD0B9880220D1
:103BA00002F036FDF868D8F80C106431884200E065
:103BB00017E016D8D8F80C10491D884211D938786A
:103BC00000280ED0387EA0F1010010F0FF003876FA
:103BD00007D1BDE8F05F52E6B988012002F018FD78
:103BE000E0E7BDE8F09F2DE9F041FFF748FE0A202D
:103BF00002F0FEFD104F02213846FDF761F9082161
:103C00003846FDF75DF901213846FDF759F90421E1
:103C10003846FDF755F9322002F0EAFD0C2002F09B
:103C200011FC0BE0780300204001002020A10700D8
:103C3000D40000206700002000180140CE4ECF4C79
:103C40004FF4FA75718888422BD9401AA84228DDB2
:103C5000FFF715FE142002F0CBFD02213846FDF7D8
:103C60002FF908213846FDF72BF901213846FDF7D9
:103C700027F904213846FDF723F9C82002F0B8FDE2
:103C80000C2002F0DFFB718888420AD9401AA84252
:103C900007DD4FF01B002070FFF7F1FD0120BDE8AC
:103CA000F0810D2002F0CEFBB18888422AD9401A5B
:103CB000A84227DDFFF7E3FD142002F099FD022161
:103CC0003846FDF7FDF808213846FDF7F9F80121DF
:103CD0003846FDF7F5F804213846FDF7F1F8C8201D
:103CE00002F086FD0D2002F0ADFBB188884209D9B3
:103CF000401AA84206DD4FF01C002070FFF7BFFD00
:103D00000120CCE7FFF7BBFD0A2002F071FD4FF464
:103D10007A773946012002F016FD3946022002F07A
:103D200012FD3946032002F00EFD3946042002F050
:103D30000AFD322002F05CFD0C2002F083FB71884A
:103D400088422AD9401AA84227DDFFF798FD14209F
:103D500002F04EFD3946012002F0F5FC3946022002
:103D600002F0F1FC3946032002F0EDFC3946042054
:103D700002F0E9FCC82002F03BFD0C2002F062FBDF
:103D80007188884209D9401AA84206DD4FF01D000B
:103D90002070FFF774FD012081E70D2002F052FB37
:103DA000B18888422AD9401AA84227DDFFF767FD6B
:103DB000142002F01DFD3946012002F0C4FC3946F2
:103DC000022002F0C0FC3946032002F0BCFC394658
:103DD000042002F0B8FCC82002F00AFD0D2002F019
:103DE00031FBB188884209D9401AA84206DD4FF05C
:103DF0001E002070FFF743FD012050E7FFF73FFD55
:103E00000A2002F0F5FC002049E72DE9F047814641
:103E10000C4690461D465A48594F0078A7F138077E
:103E200007F11C0638B9FFF7DEFE01286AD04FF013
:103E3000C801B980B18009F0FF02BA70FC604FF090
:103E4000000078614E49A1F18001C86008620860F5
:103E50004860886086F80280F560706101F1240195
:103E6000C8600862086048608860DFF80CC14FF0E5
:103E70000103AC4207D1DCF80810B960B1603B76B1
:103E80003B70307033760ED9DCF80810B9603B76A1
:103E90003B70307035B105FB01F8B8FBF4F1B1604F
:103EA000337600E03076A5420DD9DCF80810B16019
:103EB0003376337038702CB14C43B4FBF5F0B860F6
:103EC0003B7600E03876387E28B1012A0FD0B988D9
:103ED000022002F09DFB307E002813D0B07801282C
:103EE0000AD0B188BDE8F047042002F091BBB98840
:103EF000012002F08DFBEEE7B188BDE8F04703201A
:103F000002F086BBBDE8F08710B5FFF7B8FC1C498E
:103F10004FF00000487010BD10B502F09BFF02F09A
:103F20002DFF02F045FF02F02EFF0A2002F060FC98
:103F300002F01EFF322002F05BFC0A2002F082FA3F
:103F40004FF4FA74A0420FD9C82002F051FC0A20A5
:103F500002F078FAA04207D908494FF01D00087016
:103F6000FFF78DFC012010BD02F012FF0A2002F0C5
:103F70003FFC002010BD0000D4000020DC01002028
:103F8000F80300202DE9F047F94DDFF8E883FA4EF9
:103F9000FA4F68B1012830D0022807D1F8494FF014
:103FA00003000870F7494FF032000870BDE8F08751
:103FB000FEF7FBFFFEF763FEFEF75FFE4FF000002B
:103FC0004FF0FF01295400F10100C0B20A28F9D3D3
:103FD0000A22E7490C20FEF7CDFC03E0FDF7D5FFF0
:103FE000FEF722FC98F808000128DFD1307A01287A
:103FF000DCD1387A0128F1D0D8E7FEF7D6FF4FF0B0
:104000000004FEF73CFEFEF738FEDFF87C9336E056
:1040100099F8000001282ED14FF0000089F8000027
:1040200004F10104E4B2FEF7C0FF4FF01800B4FB46
:10403000F0F100FB1144042C0DD24FF000004FF0C2
:10404000110101FA04F1C9B2295400F10100C0B212
:104050000A28F9D30AE0E0071CD0A4F1040000EB21
:10406000D0704FEA60004FF0F00129540A22C04995
:104070000C20FEF77FFCFDF788FFFEF7D5FB98F8D4
:104080000800012892D1307A01288FD1387A01288E
:10409000BED08BE7A4F1040000EBD0704FEA6000C3
:1040A0004FF00F012954E1E72DE9F041B74CB84931
:1040B000B84A2078B84E097E127E78B1254640F67F
:1040C000B833ED684FF4FA67012811D002281DD0EB
:1040D0000021032824D02170BDE8F0810029FBD104
:1040E000002AF9D14FF0010020703068E060F3E75A
:1040F0003068401B9842EFD9394601220B461046E2
:10410000FFF783FE4FF002002070E5E70029E3D1BE
:10411000002AE1D14FF0030020703068E060DBE757
:104120003068401B9842D7D921703946BDE8F0412C
:1041300002220B461046FFF768BE2DE9F05FDFF85C
:104140004C928F4D8F4EDFF854B28F4F00244FF4B6
:104150007A784FF00A0A062827D2DFE800F0032811
:104160004C7094ACFFF7B7FB6FF07F41032003F076
:1041700041FB3878012818D13C708949CA68D9F8C0
:104180000800A2EB0002B2FBF8F202F10A022A7068
:10419000CA68A2EB0000B0FBF8F208FB1200B0FB0B
:1041A000FAF03070C868C9F80800BDE8F09FFFF762
:1041B00092FB6FF07F41032003F01CFB387801284D
:1041C000F3D13C707749CA68D9F80800A2EB000225
:1041D000B2FBF8F202F114022A70CA68A2EB0000E6
:1041E000B0FBF8F208FB1200B0FBFAF03070C868C0
:1041F000C9F80800D9E7FFF76EFB6FF07F41042094
:1042000003F0F8FA38780128CFD13C706449CA68C5
:10421000D9F80800A2EB0002B2FBF8F202F11E028C
:104220002A70CA68A2EB0000B0FBF8F208FB12008B
:10423000B0FBFAF03070C868C9F80800B5E7FFF7BE
:104240004AFB6FF07F41042003F0D4FA387801284C
:10425000ABD13C705349CA68D9F80800A2EB000200
:10426000B2FBF8F202F128022A70CA68A2EB000041
:10427000B0FBF8F208FB1200B0FBFAF03070C8682F
:10428000C9F8080091E7FEF74DF94FF032002870A9
:1042900034703878012888D13C704348017801296E
:1042A00005D04FF0010101708BF800107DE704701C
:1042B0008BF8004079E7FEF735F9FFF70CFB4FF07C
:1042C0003C002870347038484FF0010505703748BD
:1042D00005703748057037480570FFF7E5FE25483B
:1042E0000178354859B1047023480178334841B109
:1042F00004702248007830B18BF8004055E7057013
:10430000F2E70570F5E78BF800504EE72DE9F0472E
:1043100064261B4D1B4C6FF07F414FF43C384FF42B
:104320007A774FF00109082820D2DFE800F0044B2B
:1043300067839FB1C8F3062003F05CFAFFF7CBFA5E
:104340001F4848F2E801008800FB01F090FBF8F0FC
:10435000B0FBF7F107FB1101B1FBF6F101F10A0126
:104360002970B0FBF6F106FB110020701EE600007C
:1043700054030020DC020020E8020020F4020020A8
:10438000640000206500002044010020E0000020BF
:10439000C0030020DC030020400100204B0000206F
:1043A000780300209C0300200C0000200E00002059
:1043B0000D0000200F0000204E0000204C000020C7
:1043C0008C000020052003F015FAFFF784FAF94865
:1043D00048F2E801008800FB01F090FBF8F0B0FB28
:1043E000F7F107FB1101B1FBF6F101F1140129709E
:1043F000B0FBF6F106FB11002070D7E5EE4880F81F
:104400000090FEF78FF8ED4848F2E801008800FBC5
:1044100001F090FBF8F0B0FBF7F107FB1101B1FBE5
:10442000F6F101F11E012970B0FBF6F106FB110057
:104430002070BBE5E24880F80090FEF773F8E14891
:1044400048F2E801008800FB01F090FBF8F0B0FBB7
:10445000F7F107FB1101B1FBF6F101F12801297019
:10446000B0FBF6F106FB110020709FE5D64880F8FE
:104470000090FEF757F84FF032002870D3480078CC
:1044800018B14FF00000207090E584F800908DE5A1
:10449000CF4840F26B11008800FB01F04FEA10306A
:1044A000B0FBF7F107FB1101B1FBF6F101F13C01A3
:1044B0002970B0FBF6F106FB1100207076E5C548C7
:1044C00040F6DB520188A1F5B270904206D34FF05E
:1044D0004F0028704FF06300207067E54FF07600C2
:1044E000BD4A431C32F813308B420CD232F81030E4
:1044F0008B4208D9B0FBF6F101F146022A7006FBA7
:104500001100207052E5A0F10100C0B20028E8D1EE
:104510004CE5FFE7FFF740F8022001F093FFAF49B9
:104520000988884208D9A0EB010000EB401000EB9D
:1045300080004FEA103001E04FF00000B0FBF7F1CF
:1045400007FB1101B1FBF6F101F150012970B0FB3D
:10455000F6F106FB1100207028E5A14AA14B0021CD
:1045600058B1012808D14FF0140010709E484279CC
:10457000012A27D09D48017070474FF00A00107043
:1045800019709B489B4A03784FF00100012B11D012
:104590001070994A1378994A012B0DD01070984ADF
:1045A0001378984A53B11070974A1378974A3BB1E1
:1045B000107070471170ECE71170F0E71170F3E7BD
:1045C000117070478079187070472DE9F041DFF85D
:1045D00040C2DCF818408B4B01220021012C2BD06B
:1045E00019708C4EB4698C4B012C27D019708B4FED
:1045F000BC69864B012C23D01970DFF82482D8F8CF
:1046000018407E4B012C1DD01970764B774D744CA1
:104610006422C8B101282BD002283BD003280AD13C
:104620004FF028002070B869012847D07D4886697E
:10463000012E4DD029704FE51A70D2E71A70D6E7D7
:104640001A70DAE71A70E0E74FF00A002070DCF821
:104650001800012801D029703EE59CF80410B1FB38
:10466000F2F002FB1011197000F10A00207033E51E
:104670004FF014002070B069012801D029702BE59B
:104680003179B1FBF2F002FB1011197000F1140046
:10469000207021E54FF01E002070D8F81800012886
:1046A00001D0297018E598F80410B1FBF2F002FB74
:1046B0001011197000F11E0020700DE53979B1FB61
:1046C000F2F002FB1011197000F12800207003E5D0
:1046D0000179B1FBF2F002FB1011197000F1280012
:1046E0002070F9E42DE9F0414F4D424B01212C7C23
:1046F0000022FE2C28D01A704C4E424B347CFE2CEB
:1047000024D01A704A4F444B3C7CFE2C20D01A70A7
:10471000DFF820C13D4B9CF81040FE2C1AD01A70D7
:10472000DFF81481354B98F81040FE2C14D01A7025
:1047300064212B4B2B4C4FF47A72052823D2DFE8EF
:1047400000F00D237D93AA001970D5E71970D9E701
:104750001970DDE71970E3E71970E9E7E8884FF4AD
:10476000A57500FB05F04FEA1030B0FBF2F502FB37
:104770001502B2FBF1F202F10A021A70B0FBF1F27B
:1047800001FB12002070A7E4F0884FF4A57500FB30
:1047900005F04FEA1030B0FBF2F502FB1502B2FB58
:1047A000F1F202F114021A70B0FBF1F201FB1200F7
:1047B000207091E48E0000200E0000209200002066
:1047C0000F000020900000200D0000204803002072
:1047D000880000207C000020C8D10008760000205E
:1047E0006400002065000020040400205000002028
:1047F000000300204A0000200C0300204E0000208F
:10480000180300204B000020240300204D0000204E
:10481000E8040020200500204C0000203C0500207A
:1048200004050020580500207004002088040020A2
:10483000D0040020B8040020A0040020F8884FF421
:10484000A57500FB05F04FEA1030B0FBF2F502FB56
:104850001502B2FBF1F202F11E021A70B0FBF1F286
:1048600001FB1200207037E4BCF806004FF4A57578
:1048700000FB05F04FEA1030B0FBF2F502FB150229
:10488000B2FBF1F202F128021A70B0FBF1F201FB67
:104890001200207020E4B8F806004FF4A57500FB64
:1048A00005F04FEA1030B0FBF2F502FB1502B2FB47
:1048B000F1F202F132021A70B0FBF1F201FB1200C8
:1048C000207009E4F0B5FB4DFB4B01212C7C00224C
:1048D000FE2C37D01A70F94EF94B347CFE2C33D0B5
:1048E0001A70F84FF84B3C7CFE2C2FD01A70DFF872
:1048F000DCC3F74B9CF81040FE2C29D01A70F54C05
:10490000F54A4FF47A73642120B3012838D0022885
:104910004CD0032815D1BCF806004FF4A57500FB58
:1049200005F04FEA1030B0FBF3F503FB1503B3FBC2
:10493000F1F303F128032370B0FBF1F301FB130043
:104940001070F0BD1970C6E71970CAE71970CEE78C
:104950001970D4E7E8884FF4A57500FB05F04FEA1D
:104960001030B0FBF3F503FB1503B3FBF1F303F1D8
:104970000A032370B0FBF1F301FB13001070F0BDCC
:10498000F0884FF4A57500FB05F04FEA1030B0FB3E
:10499000F3F503FB1503B3FBF1F303F114032370E9
:1049A000B0FBF1F301FB13001070F0BDF8884FF479
:1049B000A57500FB05F04FEA1030B0FBF3F503FBE3
:1049C0001503B3FBF1F303F11E032370B0FBF1F306
:1049D00001FB13001070F0BD2DE9F05F0646FDF7F6
:1049E000A1FDFEF778FF0322BC4DBD4C4FF001093D
:1049F0004FF0050A042044F620674FF00008C6B1C6
:104A0000DFF8E0B2B84BDFF8E4C24FF47A71012E60
:104A10007DD0022E7CD0032E21D1FEF7C6FA4FF0B6
:104A20000004FEF72CF9FEF728F9B14EB14DB24F54
:104A3000E9E263780626DFF8C4B2DFF8C4C2B14900
:104A4000092B0CD2DFE803F00527F5F4F3F2F1F0BF
:104A5000EF00FFF7C8F818B1667084F8049011E40D
:104A6000FFF75AFA20B166704FF00200207109E496
:104A7000607800F101006070C4F8108028686061FF
:104A80008BF80090A04880F80090A04880F8009033
:104A90009F4880F800906FF07F41032002F0AAFE4B
:104AA0008448C1884FF4A170A1F28751814203D29A
:104AB000216941F0010121618049C988A1F2875132
:104AC000814203D2216941F0020121617D49C988F7
:104AD000A1F28751814203D2216941F00401216191
:104AE0007A49C988A1F28751814203D2216941F0F4
:104AF000080121618749C988A1F28751814203D207
:104B0000216941F0100121618349C98801E0A3E1D5
:104B1000ECE1A1F28751814203D2216941F02001E9
:104B200021617E49C988A1F28751814203D221695E
:104B300041F0400121617A49C988A1F2875181423F
:104B400003D2216941F0800121617649C988A1F22F
:104B50008751814203D2206940F4807020617248FD
:104B60000069012803D1206940F4007020616F487A
:104B70000069012803D1206940F4806020616C48FD
:104B80000069012803D1206940F400602061694870
:104B90000069012803D1206940F4805020616648F3
:104BA0000078012846D0206940F4804020616348A5
:104BB0000078012843D0206940F4803020616048AB
:104BC0000078012840D0206940F4802020615D48B1
:104BD000007801283DD0206940F4801020615A48B7
:104BE000C068032803D9206940F480002061574839
:104BF000C068032803D9206940F4000020615448AC
:104C0000007801282AD0206940F0007020612868CF
:104C10006169401AB8427FF622AF4E492069884246
:104C200021D066701BE702E1F0E0E8E0E1E0BDE0E2
:104C3000AFE01DE0206940F400502061B7E7206933
:104C400040F400402061BAE7206940F40030206160
:104C5000BDE7206940F400202061C0E7206940F0F2
:104C600080702061D3E7607800F101006070F6E6A3
:104C7000394B1B88A3F23373B3F5CD7F02D966702D
:104C80002271ECE6BCF80030AF3B752B02D36670A6
:104C90002071E4E60888AF38752803D3667084F87D
:104CA00004A0DCE62D480088AF38752858D366701C
:104CB0002671D4E6100400204A00002040040020A1
:104CC0004B000020580400204D0000202804002044
:104CD0004E000020640000206500002040010020FC
:104CE000E000002060030020860000207600002005
:104CF0004401002054030020DC0200200C000020AE
:104D00008C0000208E0000200D0000200E000020EE
:104D10000F0000207004002088040020D004002030
:104D2000B8040020A0040020E80400202005002092
:104D30003C05002004050020000300200C03002097
:104D40001803002024030020780300209C03002087
:104D500048030020FFFFDF038A00002092000020AC
:104D6000FF480088AF38752804D366704FF00700FD
:104D7000207174E68BF80090FA4880F80080FA48B9
:104D800080F80080F94880F80080286860616270CF
:104D900065E629686269891AB94200D96070BDE880
:104DA000F05F6FF07F41042002F024BDBCF80000EA
:104DB0000827AF38752802D3667027714FE6088838
:104DC000AF38752804D366704FF00900207146E6AD
:104DD000FFF79AF88BF80080E24880F80080E248FC
:104DE00080F80080E14880F8008067702868606182
:104DF00035E6FDF7F1FB4FF0070060702FE602206B
:104E0000FDF7F6FB607800F101006070FFF77CF8B9
:104E10008BF80080D34880F80080D34880F8008069
:104E2000D24880F80080D2492079087017E62868B7
:104E30006169401AB8429CD9CE480088A0F2DC5083
:104E4000F92803D366704FF00B00207160780628B4
:104E50008FD084F801A002E6A678062E89D2DFE87A
:104E600006F003082032373F2868606184F802901A
:104E7000F5E52A686669921BBA4289D99BF80C202D
:104E8000012A01D0A070EAE51888ACF80000286873
:104E90006061052001F0BCFBA07800F10100A0706A
:104EA000DDE529686569491BB94287D91988BCF8CD
:104EB0000030A1EB0301A1F2E131F92901D3A07087
:104EC000CDE5A270CBE5FDF787FB84F802A0C6E52F
:104ED0000220FDF78DFBA07800F10100A070BEE577
:104EE000BDE8F05F0021052001F092BBE678062EB8
:104EF00084D2DFE806F003082032373F286860617B
:104F000084F80390ABE52A686669921BBA428DD992
:104F10009BF80D20012A01D0E070A0E51888ACF8BC
:104F2000000028686061052001F072FBE07800F164
:104F30000100E07093E529686569491BB9428AD987
:104F40001988BCF80030A1EB0301A1F2E131F92985
:104F500001D3E07083E5E27081E5FDF73DFB84F865
:104F600003A07CE50220FDF743FBE07800F101009F
:104F7000E07074E5BDE8F05F0021052001F048BB5A
:104F8000307801283BD186F8008004F10104E4B2B6
:104F9000FEF70BF84FF01A00B4FBF0F100FB1144E0
:104FA000022C0AD24FF000004FF0FF01295400F10B
:104FB0000100C0B20A28F9D31CE0062C0FD24FF032
:104FC0000000A4F102014FF0110202FA01F2D1B285
:104FD000295400F10100C0B20A28F9D30AE0E00721
:104FE0001DD0A4F1060000EBD0704FEA60004FF036
:104FF000F00129540A2260490C20FDF7BBFCFCF7A4
:10500000C4FFFDF711FC387A012886D15B48007A8D
:1050100001288FD15A48007A0128B1D01FE5A4F1A8
:10502000060000EBD0704FEA60004FF00F012954EA
:10503000E0E72DE9FC5F53480068019052484FF0CB
:1050400001060670514806705148067051480670B6
:105050005148067051480670514F3E70DFF8448148
:1050600088F8006050480670DFF8409189F80060C9
:105070004F4806704F4806704F4806704F480670FC
:105080004F4806704F4806704F4806704F480670EC
:105090004F4806704F4806704F4806704F480670DC
:1050A0004F4806704F4806704F4806704F494FF002
:1050B000FF0008704E484FF0000B80F800B02C48FD
:1050C00080F800B0DFF82CA18AF800B04A480670DA
:1050D0004A494FF00300087000F0E1FE00F0E4FEE2
:1050E00001F08EF801F0E7FE4FF000000090054659
:1050F0000446FDF771FAFDF788FAFDF795FBFDF719
:10510000C0FDFCF742FF1E48007A10B93C48007A07
:1051100040B11C4801680198091A47F23050814299
:10512000E9D381E1364806721448067214480672C3
:105130004FF001000090FDF74FFAFDF7EDFE01F092
:1051400072FB304880F800B001F02BFD01F06BFBE2
:105150000D4806704FF000052B4880F800B063E161
:10516000900000200D0000200E0000200F00002005
:10517000650000208800002054030020E802002081
:10518000F402002040010020490000204A000020D5
:105190004B0000204C0000204D0000204E0000205D
:1051A0004F0000205000002051000020520000203D
:1051B000530000205400002055000020570000201C
:1051C00058000020590000205A0000205B000020F9
:1051D0005C0000205D0000205E0000205F000020D9
:1051E00060000020610000206200002063000020B9
:1051F0006400002066000020670000206800002096
:10520000DC02002049010020DC010020FDF7FDF94F
:10521000FDF70AFBFDF735FDFEF7D0F9FEF720FAA2
:1052200000F08DFC00F06BFDFCF7AFFE814800F054
:10523000D8FF814800F0D5FF804800F0D2FF8048B9
:1052400000F0CFFF7F4800F0CCFFFEF7A5F97E48C5
:10525000017A69BB067205F10105EDB27B4880F861
:1052600000B0042D02D1CCB1012C17D0052D01D1F5
:10527000022C13D0042D01D1032C0FD0022D01D10B
:10528000042C0BD0082D01D1052C07D0062D01D1FF
:10529000062C03D0032D03D1072C01D14FF00005BC
:1052A000FDF79AF9FDF738FE6948067002F023FF12
:1052B0006848017AA1B9067204F10104E4B26348B6
:1052C00080F800B0082C01D14FF00004FDF784F9FC
:1052D000FDF722FE5E4806704FF0000502F00BFF5E
:1052E0005D48007AF0B15948007808B3FDF714FE24
:1052F000574806703E7088F8006058480670584855
:10530000067052484FF06403DFF858C10178B1FBD2
:10531000F3F000F18C028CF8002003FB10115248CE
:10532000017081E04C480672BDE8FC5FFDF754B99E
:10533000082C77D2DFE804F0041E2934414E5B6864
:1053400001F029FC4149C0B2087040BB89F80060F7
:105350008AF800B03E7088F8006005EB85004FEADF
:10536000400140480170404880F800B02846FFF7EF
:1053700033FB59E089F800608AF800B03E7088F885
:1053800000602846FFF79EFA4EE089F800608AF830
:1053900000603E7088F800602846FFF7A3F943E0FC
:1053A00089F800604FF002008AF800003E7088F82B
:1053B00000602846FFF709F936E089F800604FF0F1
:1053C00003008AF800003E7088F800602846FFF766
:1053D000C4F829E089F800604FF004008AF8000062
:1053E0003E7088F800602846FEF790FF1CE089F8C0
:1053F00000604FF005008AF800003E7088F80060F9
:105400002846FEF79AFE0FE089F800604FF006008C
:105410008AF800003E7088F800602846FEF7B2FD6A
:1054200002E0FFE74FF00004009801283FF4EEAEE1
:10543000BDE8FC9FE80400202005002004050020B2
:105440003C05002058050020F4020020DC0100206B
:1054500049000020E8020020DC0200204A00002071
:1054600057000020640000206500002038B50121AD
:105470003020FCF7A0F84FF00100ADF800004FF02D
:1054800003048DF802404FF048008DF80300694690
:10549000F948FBF796FCF94D4FF480512846FBF78D
:1054A0000DFD29152846FBF709FDE9142846FBF7F1
:1054B00007FD4FF4E051ADF800108DF802404FF0B9
:1054C00010018DF8031069462846FBF77AFC38BDB9
:1054D0002DE9F04105464FF00004E84E4FF48058A6
:1054E0004FF40067280604D541463046FBF7E6FC3A
:1054F00003E041463046FBF7E3FC0A20FDF7E0F904
:1055000039463046FBF7DAFC0A20FDF7D9F939466F
:105510003046FBF7D5FC4FEA45604FEA106504F1D1
:105520000104E4B2042CDDD3BDE8F08170B5064679
:10553000D24D4FF4806421462846FBF7C1FC30462B
:10554000FFF7C6FF21462846BDE87040FBF7B6BC12
:105550002DE9F04705460E46DFF820834FF4806AB8
:1055600051464046FBF7ACFC4FF000044FF4805925
:105570004FF40067280604D549464046FBF79EFCD9
:1055800003E049464046FBF79BFC0A20FDF798F9EB
:1055900039464046FBF792FC0A20FDF791F939465F
:1055A0004046FBF78DFC4FEA45604FEA106504F179
:1055B0000104E4B2082CDDD30A20FDF781F94FF095
:1055C0000004300604D549464046FBF777FC03E06B
:1055D00049464046FBF774FC0A20FDF771F939464D
:1055E0004046FBF76BFC0A20FDF76AF93946404656
:1055F000FBF766FC4FEA46604FEA106604F10104CF
:10560000E4B2082CDDD351464046BDE8F047FBF735
:1056100055BC01460F209BE710B56320FFF7F9FF4B
:10562000F020FFF783FFBDE81040C0207EE708B5FB
:105630004FF48050ADF800004FF003008DF80200E9
:105640004FF010008DF8030069468C48FBF7B9FB5A
:1056500008BD08B54FF48050ADF800004FF00300CE
:105660008DF802004FF004008DF80300694683486E
:10567000FBF7A7FB08BD2DE9F04705464FF00004F6
:105680007E4F4FF480613846FBF71AFC45F0400529
:1056900026464FF480594FF40068280604D5494641
:1056A0003846FBF70BFC03E049463846FBF708FC9D
:1056B0000A20FDF705F941463846FBF7FFFB0A20B3
:1056C000FDF7FEF841463846FBF7FAFB4FEA456026
:1056D0004FEA106506F10106F6B2082EDDD30A2066
:1056E000FDF7EEF8FFF7B5FF4FF000054FF00106AC
:1056F00049463846FBF7CAFB18B106EB4400C4B272
:1057000003E04FEA44604FEA106441463846FBF735
:10571000D5FB0A20FDF7D4F841463846FBF7D0FB0D
:105720000A20FDF7CDF805F10105EDB2082DDFD314
:10573000FFF77DFF2046BDE8F08770B54FF001040C
:105740004F4D2046295DFFF703FF04F10104E4B249
:10575000042CF6D94FF007042046295DFFF7F8FE28
:1057600004F10104E4B2222CF6D94FF024042046BF
:10577000295DFFF7EDFE04F10104E4B2312CF6D906
:1057800070BD2DE9F0474FF00004FFF762FF25469A
:105790003A4E4FF480594FF001084FF400674946E4
:1057A0003046FBF773FB18B108EB4400C4B203E0CA
:1057B0004FEA44604FEA106439463046FBF77EFBFF
:1057C0000A20FDF77DF839463046FBF779FB05F1F5
:1057D0000105EDB2082DE2D3FFF729FF2046AAE725
:1057E0002DE9F04105464FF00004244E4FF4805857
:1057F0004FF40067280604D541463046FBF75EFBB0
:1058000003E041463046FBF75BFB0A20FDF758F802
:1058100039463046FBF752FB0A20FDF751F839466E
:105820003046FBF74DFB4FEA45604FEA106504F147
:105830000104E4B2082CDDD376E62DE9F0410546FB
:105840004FF046040D4F4FF4806631463846FBF763
:1058500037FB2046FFF7C4FF4FF00004FFF791FF2E
:10586000285504F10104E4B2042CF7D3314638463C
:10587000BDE8F041FBF722BB0014014000100140DD
:1058800000010020F8B54FF00604C34F4FF48066C6
:1058900031463846FBF714FB2046FFF7A1FF4FF0D7
:1058A0000004BE4D285DFFF79BFF04F10104E4B244
:1058B000042CF7D331463846FBF700FB3146384617
:1058C000FBF7FEFA6846FFF7B8FF4FF000006946A5
:1058D0002B5C0A5C9A4204D100F10100C0B204289A
:1058E000F6D3F8BD0021084632E610B5FFF7FAFFFF
:1058F000FFF7C8FFFFF721FFA020FFF717FE0121E8
:105900000220FFF725FE032000F072FF0220FFF7C0
:10591000B2FE00F0010000281AD14FF02200FFF77C
:10592000AAFE00F01000002812D14FF013014FF032
:105930002400FFF70DFE09212520FFF709FEA02016
:10594000FFF7F4FDFFF768FE95494FF0000048703F
:1059500010BD2DE9F04105464FF045048E4F4FF440
:10596000806631463846FBF7ABFA2046FFF738FF32
:105970004FF00004FFF705FF285504F10104E4B2DD
:10598000082CF7D331463846BDE8F041FBF796BA0C
:105990007CB501218348FBF779FA78BB6846FFF7AD
:1059A000D8FF9DF80000332829D19DF801009DF80B
:1059B00002109DF8032000F1330301EB02041C44A4
:1059C0009DF804301C44E4B29DF80750A54216D15E
:1059D0004FEA014103EB006001EB022108447049EA
:1059E0004A68904202D0486001F00EFBF020FFF7B9
:1059F0009DFDC020FFF79AFD01207CBDFFE7F02050
:105A0000FFF794FDC020FFF791FD0020F5E7FEB5FC
:105A1000FFF72CFD01F0D4FA01F018FB6049486053
:105A2000FFF763FF60484FF000058571C5712C4694
:105A300047F23056FFF7ACFF012830D03046FCF774
:105A40003FFF04F10104E4B2642CF3D3F020FFF72C
:105A50006DFD00210320FBF774FA4FF00104009460
:105A60008DF804504FF00C008DF805008DF80640BD
:105A70006846FAF7A5FE4FF006008DF808004FF0D3
:105A80000F008DF809008DF80A508DF80B4002A820
:105A9000FBF7B7FAC020FFF749FD0120FEBD01F07A
:105AA00090F9424C2046FCF70BFF01F0E1F920464B
:105AB000FCF706FFCAE72DE9F04105460E464FF018
:105AC0000504DFF8D4804FF4806739464046FBF781
:105AD000F7F92046FFF784FE4FF0000405E0285D4B
